:020000040800F2
:1000000000C000201D2100086D1F00086F1F0008A0
:10001000711F0008731F0008751F00080000000012
:100020000000000000000000000000006113000854
:10003000771F000800000000F113000835140008C5
:100040006521000865210008652100086521000878
:100050006521000865210008652100086521000868
:100060006521000865210008652100086521000858
:100070006521000865210008652100086521000848
:100080006521000865210008652100086521000838
:100090006521000865210008652100086521000828
:1000A0006521000865210008652100086521000818
:1000B0006521000865210008652100086521000808
:1000C00065210008652100086521000865210008F8
:1000D0006521000865210008791F000865210008D6
:1000E00065210008652100086521000865210008D8
:1000F00065210008652100086521000865210008C8
:1001000065210008652100086521000865210008B7
:10011000652100086521000865210008851F000889
:100120006521000865210008652100086521000897
:1001300000000000000000000000000000000000BF
:1001400000000000000000000000000000000000AF
:10015000000000000000000000000000000000009F
:10016000000000000000000000000000000000008F
:10017000000000000000000000000000000000007F
:10018000000000000000000000000000000000006F
:10019000000000000000000000000000000000005F
:1001A000000000000000000000000000000000004F
:1001B000000000000000000000000000000000003F
:1001C000000000000000000000000000000000002F
:1001D000000000000000000000000000000000001F
:0401E0005FF8E0F1F3
:1001F00010B5054C237833B9044B13B10448AFF361
:1002000000800123237010BD70000020000000005A
:10021000A42A000808B5034B1BB103490348AFF3F8
:10022000008008BD0000000074000020A42A00081F
:10023000074A08B51368032043F01003136000F069
:100240001BF8002001F056FE01F028FE002008BD3A
:1002500000200240034A044B11681B780B441360D2
:10026000704700BFE40D002000000020014B18681B
:10027000704700BFE40D0020074A0002D36800F475
:10028000E06023F4E0631B041B0C43F0BF6343F402
:1002900000330343D360704700ED00E0174B30B5E7
:1002A000DC68C4F30224C4F10703251D042B28BF16
:1002B0000423062D4FF0010598BF002405FA03F32F
:1002C00003F1FF3388BF033C1940A14005FA04F451
:1002D000013C2240002842EA01024FEA0212AFBF6D
:1002E00000F16040064B00F00F00D2B2A5BFD2B2C1
:1002F00000F561401A5480F8002330BD00ED00E0A5
:1003000014ED00E00123420900F01F0003FA00F0A1
:10031000014B43F82200704700E100E090F82130E3
:1003200010B5022B03D004238363012010BD0368A2
:100330001A6822F00E021A601A6822F001021A608E
:10034000294A934224D902F56272934219D0143299
:10035000934218D01432934217D0143293420CBFF8
:100360004FF480534FF48033204A5360012300241C
:1003700080F82130436B80F820409BB3984720469B
:1003800010BD0123F0E71023EEE74FF48073EBE795
:1003900017498B4216D014318B4215D014318B4241
:1003A00014D014318B4214D014318B4214D0143138
:1003B0008B4214D0934214BF4FF480334FF08073BC
:1003C0000C4AD2E70123FBE71023F9E74FF48073CF
:1003D000F6E74FF48053F3E74FF48033F0E74FF440
:1003E0008013EDE7184610BD800002400004024073
:1003F00008000240000002402DE9F74F0022164697
:100400006C4F6D4BDFF8B8E1DFF8B8C14FF0010871
:100410000C6808FA06F808EA0404A04540F0858054
:100420004D68122D00F0B78000F28D80022D00F093
:10043000AF8000F28180002D00F09180012D00F04E
:10044000A5804FF00F09FF2C93BF824606F180452F
:10045000083DD0F800B092BFB500D0F804B0AD00B0
:1004600009FA05F82BEA080802FA05F588BF00F139
:10047000040A48EA0505CAF80050D1F804A01AF0A9
:10048000805F52D0BD6926F0030845F00105BD61CB
:10049000BD6908F1804805F00105019508F580382F
:1004A00006F0030B019D4FEA8B0BD8F8085009FAB0
:1004B0000BF925EA0909414DA84271D005F580657F
:1004C000A8426FD005F58065A8426DD005F580651E
:1004D000A8426BD005F58065A84269D070450CBF75
:1004E0000525062505FA0BF545EA0905C8F8085063
:1004F0001D681AF4803F14BF2543A5431D605D6845
:100500001AF4003F14BF2543A5435D609D681AF4AB
:10051000801F14BF2543A5439D60DD681AF4001FAA
:1005200014BF2C4325EA0404DC600136102E7FF44E
:100530006DAF03B0BDE8F08F032D25D0112D80D114
:10054000CA6804327DE7654509D012D8DFF8789093
:100550004D4504D009F580394D457FF472AF8A6866
:10056000E2B1012A0CBFC0F81080C0F81480082244
:1005700067E7DFF858904D45F1D009F580394D45D2
:10058000EDD0A9F58019E7E700225AE7CA6858E7D5
:10059000CA68083255E7CA680C3252E7042250E7AD
:1005A00000259FE701259DE702259BE7032599E7A5
:1005B000042597E7001002400004014000080140B4
:1005C000001C01400000211000001110000031103B
:1005D0000AB1016170470904FBE7000003682DE9D7
:1005E000F341DB07054610D42B689F075ED42B68C8
:1005F000190700F195802B685A0700F1BF80EA695E
:10060000002A40F02D81002014E0904C636803F034
:100610000C03042B07D0636803F00C03082B0CD1E8
:100620006368DE0309D523689C03DDD56B68002B66
:10063000DAD1012002B0BDE8F0816B68B3F5803FEC
:1006400010D1236843F480332360FFF70FFE064682
:1006500023689803C8D4FFF709FE801B6428F7D9E4
:100660000320E7E79BB9236823F4803323602368E2
:1006700023F480232360FFF7F9FD064623689903DE
:10068000B2D5FFF7F3FD801B6428F7D9E8E7B3F58F
:10069000A02F236803D143F480232360D1E723F400
:1006A00080332360236823F48023CDE7674C63689D
:1006B00013F00C0F07D0636803F00C03082B10D164
:1006C0006368DA030DD423689B0702D52B69012BDD
:1006D000AFD123686A6923F0F80343EAC2032360B9
:1006E00085E72A695A4B6AB101221A60FFF7BEFDFD
:1006F000064623689F07ECD4FFF7B8FD801B02284D
:10070000F7D9ADE71A60FFF7B1FD064623689807F1
:100710007FF56DAFFFF7AAFD801B0228F6D99FE792
:10072000AA694A4C4B4BDAB101221A60FFF79EFDD1
:100730000646636A9B070DD54FF4FA52464B1B6879
:10074000B3FBF2F3019300BF019B5A1E0192002BF1
:10075000F9D150E7FFF78AFD801B0228E9D97FE72E
:100760001A60FFF783FD0646636A9F077FF543AF74
:10077000FFF77CFD801B0228F6D971E7334CE36953
:10078000D80024D40127E36943F08053E361E3698F
:1007900003F080530093009B304E3368D90518D581
:1007A000EB68012B26D1236A43F001032362FFF794
:1007B0005DFD41F288368046236A9B073FD5002FB6
:1007C0003FF41DAFE36923F08053E36117E700278F
:1007D000E2E7336843F480733360FFF747FD8046F8
:1007E0003368DA05DCD4FFF741FDA0EB080064288C
:1007F000F6D935E7ABB9236A41F2883823F0010313
:100800002362236A23F004032362FFF72FFD0646C9
:10081000236A9807D3D5FFF729FD801B4045F7D9F8
:100820001EE7052B236A03D143F004032362BAE7D2
:1008300023F001032362236A23F00403B6E7FFF7E2
:1008400015FDA0EB0800B042B6D909E70010024040
:100850000000424280044242080000200070004034
:10086000224C636803F00C03082B3FF4E2AE002334
:100870001F4E022A33602BD1FFF7F8FC074623688E
:1008800099011FD42B6AB3F5803F05D16268A9682E
:1008900022F400320A436260696A62680B4322F400
:1008A00074121343636001233360FFF7DFFC0546D6
:1008B00023689A013FF5A7AEFFF7D8FC401B02283A
:1008C000F6D9CDE6FFF7D2FCC01B0228D7D9C7E680
:1008D000FFF7CCFC054623689B017FF594AEFFF73C
:1008E000C5FC401B0228F6D9BAE600BF0010024042
:1008F0006000424230B5194B87B002AC03F11005DD
:10090000224618685968083303C2AB421446F7D12F
:1009100001238DF80430022311498DF805304B680E
:1009200003F00C02082A17D1C3F3834206A802443D
:10093000DB0312F8102C0CD54B680A48C3F3404374
:10094000504306AA134413F8143CB0FBF3F007B06D
:1009500030BD05485043FAE70248F8E7BC2A0008D2
:100960000010024000127A0000093D00544A2DE9AF
:10097000F0411368054603F007038B420E462AD365
:1009800029688C0734D4CA0747D44D4A136803F04A
:1009900007039E42C0F082802A684A4C12F0040F7E
:1009A00040F08780130706D563682A6923F46053F3
:1009B00043EAC2036360FFF79DFF6368424AC3F3E3
:1009C0000313D35CD840414B1860002001F092FA29
:1009D0000020BDE8F081136823F007030B43136088
:1009E000136803F007039942CAD00120BDE8F081E3
:1009F000344B11F0040F1EBF5A6842F4E0625A6093
:100A0000080742BF5A6842F460525A605A68A868A0
:100A100022F0F00202435A60B5E76A68294C012AC5
:100A200023681CD113F4003FDFD0636841F288389B
:100A300023F0030313436360FFF718FC6B6807465A
:100A4000012B14D1636803F00C03042B9DD0FFF736
:100A50000DFCC01B4045F5D90320BDE8F081022AFA
:100A600002D113F0007FDFE713F0020FDCE7022B67
:100A70000FD1636803F00C03082B86D0FFF7F6FB59
:100A8000C01B4045F5D9E7E7FFF7F0FBC01B404529
:100A9000E2D8636813F00C0FF6D176E7136823F001
:100AA000070333431360136803F007039E429CD18E
:100AB00072E76368E96823F4E0630B43636071E7FE
:100AC00000200240001002402D2B000808000020EA
:100AD000044B054A5B68C3F30223D35C034A1068E6
:100AE000D8407047001002403D2B0008080000204D
:100AF000044B054A5B68C3F3C223D35C034A106806
:100B0000D8407047001002403D2B0008080000202C
:100B10000F2303600B4B5A6802F0030242605A68CD
:100B200002F0F00282605A6802F4E062C2605B6820
:100B3000DB0803F4E0630361034B1B6803F0070366
:100B40000B607047001002400020024070470368AD
:100B50000020DA6842F00102DA601A6842F001020D
:100B60001A6070477047704770477047036810B548
:100B70001A69044691070ED5DA6892070BD56FF013
:100B800002021A6101229B6902779B0777D0FFF767
:100B9000EAFF0023237723681A69500710D5DA6823
:100BA00051070DD56FF004021A6102229B6922776A
:100BB00013F4407F204668D0FFF7D5FF002323774A
:100BC00023681A6912070FD5DA6810070CD56FF081
:100BD00008021A610422DB692277990720465AD05D
:100BE000FFF7C1FF0023237723681A69D20610D5C7
:100BF000DA68D0060DD56FF010021A610822DB69A1
:100C0000227713F4407F20464BD0FFF7ACFF002340
:100C1000237723681A69D10708D5DA68D20705D582
:100C20006FF0010220461A6101F02CF923681A695D
:100C3000100608D5DA68110605D56FF08002204647
:100C40001A6100F09CF823681A69520608D5DA6820
:100C5000500605D56FF0400220461A61FFF785FF68
:100C600023681A69910622D5DA6892061FD56FF0BB
:100C700020022046BDE810401A6100F07FB8FFF75F
:100C800071FF2046FFF770FF83E7FFF76BFF2046F9
:100C9000FFF76AFF92E7FFF765FF2046FFF764FF63
:100CA000A0E7FFF75FFF2046FFF75EFFAFE710BD4D
:100CB000244A0368904212D002F5006290420ED09E
:100CC000B0F1804F0BD0A2F59832904207D002F5D8
:100CD0008062904203D002F5806290421DD14A6842
:100CE00023F070031343174A904212D002F50062BA
:100CF00090420ED0B0F1804F0BD0A2F598329042C6
:100D000007D002F58062904203D002F580629042E3
:100D100003D1CA6823F4407313434A6923F0800364
:100D2000134303608B68C3620B688362054B984270
:100D300003D003F50063984201D10B6903630123DB
:100D400043617047002C014010B50446A0B190F8F3
:100D50003D3003F0FF021BB980F83C20FFF7F6FEA0
:100D60000223206884F83D30211DFFF7A1FF0123F5
:100D7000002084F83D3010BD012010BD7047704741
:100D80000368DA6822F49072DA605A6922F001028C
:100D90005A61202380F83A30704700002DE9F0476F
:100DA0000568C2682B69016923F4405313432B6122
:100DB0008368EA680B43416922F4B05222F00C02C6
:100DC0000B431343EB606B69826923F44073134355
:100DD0006B61404B81469D424FF0190446D1FFF7AD
:100DE00087FE04FB00F3D9F804604FF06408B600F6
:100DF000B3FBF6F3B3FBF8F31E01FFF779FE604394
:100E0000D9F804309B00B0FBF3F7FFF771FE6043A5
:100E1000D9F804309B00B0FBF3F3B3FBF8F308FB05
:100E200013731B013233B3FBF8F303F0F007FFF742
:100E30005FFE6043D9F804209200B0FBF2FAFFF79E
:100E400057FE6043D9F804309B00B0FBF3F3B3FBCB
:100E5000F8F308FB13A31B013233B3FBF8F303F0E1
:100E60000F033B433344AB60BDE8F087FFF730FE30
:100E700004FB00F3D9F804604FF06408B600B3FB3C
:100E8000F6F3B3FBF8F31E01FFF722FE6043D9F837
:100E900004309B00B0FBF3F7FFF71AFE6043D9F86C
:100EA00004309B00B0FBF3F3B3FBF8F308FB1373C0
:100EB0001B013233B3FBF8F303F0F007FFF708FE32
:100EC0006043D9F804209200B0FBF2FAFFF700FE6D
:100ED000B7E700BF00380140F8B504460E46174694
:100EE0001D4621680B6836EA030301D10020F8BDD6
:100EF0006B1CF7D095B923680320DA6822F4D0720E
:100F0000DA605A6922F001025A61202384F83930EC
:100F100084F83A30002384F83830F8BDFFF7A6F99A
:100F2000C01B8542DDD2E6E710B5044640B390F819
:100F3000393003F0FF021BB980F8382001F0ACF81B
:100F40002423226884F83930D368204623F40053E0
:100F5000D360FFF723FF236800201A6922F4904230
:100F60001A615A6922F02A025A61DA6842F4005280
:100F7000DA602023E06384F8393084F83A3010BD19
:100F8000012010BD2DE9F0411F4690F8393004468C
:100F9000202B0D4690464ED1002949D0002A47D03B
:100FA00090F83830012B46D0012380F838300023E8
:100FB000C363212380F83930FFF758F90646A4F8B7
:100FC0002480A4F82680E38C9BB26BB93B46324662
:100FD00040212046FFF780FFA8B9202384F838007D
:100FE00084F83930BDE8F081E38C3246013B9BB296
:100FF000E384A3688021B3F5805F20463B460ED191
:10100000FFF76AFF10B10320BDE8F0812B8822684A
:10101000C3F308035360236943B90235D3E7FFF7ED
:101020005BFF0028EFD123682A785A600135CAE7B0
:101030000120BDE8F0810220BDE8F08170477047D3
:1010400090F83A3010B5222B36D183680169B3F598
:10105000805F0268836A23D15268E9B9C2F308024B
:1010600023F8022B8362C48D013CA4B2C4858CB9E1
:101070000368DA6822F02002DA60DA6822F480720B
:10108000DA605A6922F001025A61202380F83A306E
:10109000FFF7D5FF002010BDD2B223F8012BE1E706
:1010A00021B9591C526881621A70DCE75268591CD8
:1010B000816202F07F02F7E7022010BD7047000056
:1010C000036870B51A6804461607D9685D6907D1C8
:1010D00096065AD58D0658D5BDE87040FFF7B0BFCB
:1010E00015F0010502D111F4907F4ED0D30705D53C
:1010F000CE0542BFE36B43F00103E363500704D521
:101100001DB1E36B43F00203E363930704D51DB104
:10111000E36B43F00403E363160704D51DB1E36BEF
:1011200043F00803E363E36B002B66D0950604D518
:10113000880602D52046FFF783FF236820465D69B5
:10114000E26B110702D415F040051AD0FFF718FE24
:1011500023685A69520610D55A69606B22F0400222
:101160005A6150B1254B4363FFF7D8F8002844D0AB
:10117000606BBDE87040436B18472046FFF79EFF49
:1011800070BDFFF79BFFE56370BD160627D50D0602
:1011900025D594F83920212A2FD1A268B2F5805F95
:1011A000226A17D11188C1F308015960216979B900
:1011B00002322262E28C013A92B2E284EAB9DA683F
:1011C00022F08002DA60DA6842F04002DA6070BD34
:1011D0000132EEE7511C216212785A60EAE75006AC
:1011E0000BD54A0609D5DA68204622F04002DA60BB
:1011F000202384F83930FFF721FF70BD0112000869
:1012000008B50023406AC385C384FFF757FF08BDB4
:1012100008B500F095FB002008BD30B5B0F90840D6
:1012200085B0842C08BF0024028A18BF03340B4603
:1012300090E8220003A801900094284600F0B0FA3C
:10124000012814BF0020039805B030BD08B5002860
:1012500008BF012000F0C2FC002008BD00F1080317
:1012600043604FF0FF32C36003610023826003607C
:10127000704700230361704743689A684B608A6037
:101280009A68516099600368086101330360704790
:101290000A6830B5531C0AD103695A684A609160E4
:1012A0008B605960036808610133036030BD00F151
:1012B00008035C682568AA42EFD32346F9E7416832
:1012C000826803698A60826851605968884208BFF1
:1012D0005A600022026118680138186070470000E7
:1012E0000A4B1B68013308D04FF0500383F3118879
:1012F000BFF36F8FBFF34F8FFEE74FF0500383F3C1
:101300001188BFF36F8FBFF34F8FFEE704000020FB
:1013100006480068006880F3088862B661B6BFF3CB
:101320004F8FBFF36F8F00DF00BF000008ED00E0BC
:101330004FF0807340F8043C054B21F0010140F868
:10134000081C40F80C3C40F8202C4038704700BF87
:10135000E112000800000000000000000000000092
:10136000074B19680868B0E8F00F80F30988BFF3ED
:101370006F8F4FF0000080F311884EF00D0E704714
:10138000AC0C00204FF0500383F31188BFF36F8F34
:10139000BFF34F8F0A4A13680133012B13600DD13D
:1013A000084B1B6813F0FF0F08D04FF0500383F376
:1013B0001188BFF36F8FBFF34F8FFEE7704700BFF9
:1013C0000400002004ED00E0084A136843B94FF020
:1013D000500383F31188BFF36F8FBFF34F8FFEE786
:1013E000013B13600BB983F31188704704000020A0
:1013F000EFF30980BFF36F8F0D4B1A6820E9F00FF0
:1014000010602DE908404FF0500080F3118800F083
:1014100043FC4FF0000080F31188BDE808401968D4
:101420000868B0E8F00F80F30988BFF36F8F70474A
:10143000AC0C002008B54FF0500383F31188BFF3C4
:101440006F8FBFF34F8F00F0BFFA18B14FF080528B
:10145000024B1A60002383F3118808BD04ED00E0FD
:101460004FF47A72054B1B68B3FBF2F3044A013B5D
:1014700013600722034B1A60704700BF080000206A
:1014800014E000E010E000E013B51F4B00211A78D3
:10149000D2B20192FF221A701B781C4ADBB28DF87F
:1014A00003309DF8033003F0500313700722184BEC
:1014B0001A609DF80300541E00061CD401B11A6086
:1014C0001A68120202F4E0621A60019B0E4ADBB253
:1014D0001370104B1A6842F470021A601A6842F0D6
:1014E00070421A60FFF7BCFF00220B4B1A60FFF737
:1014F0000FFFFFF7F5FE9DF8032001215200D2B245
:101500008DF803202246D4E700E400E08C000020A0
:101510009000002020ED00E00400002010B50F4BEB
:101520001A68824218D35C681919884201BF416861
:10153000184609195960446801198A4207D10849B7
:1015400009688A421FBF51681268091941609842B0
:10155000026018BF186010BD1346E1E7A40C00201C
:10156000940000202DE9F041044600F025FA3E49A0
:101570003E4D0B680BBB3E4A56071DBFD01D20F0E9
:10158000070002F540634FF440631CBF02461B1A7C
:1015900000201344374E083B23F00703706032608D
:1015A000586018600B60981A1360334B50601860D5
:1015B000324B18604FF000432B602F68274216D142
:1015C000002C40D004F1080358071CBF23F0070388
:1015D000083363B1294A16689046B34207D8254AB2
:1015E00015686868834204D809688D4207D10024D1
:1015F00029E02C68002CF7D02A462546F1E7296817
:1016000014681160C21A102A0FD9E818410708D0CF
:101610004FF0500383F31188BFF36F8FBFF34F8FE9
:10162000FEE742606B60FFF779FF6B681249F61ABC
:101630001F4300230868C8F80060864238BF0E6068
:1016400008346F602B6000F051FA630708D04FF048
:10165000500383F31188BFF36F8FBFF34F8FFEE703
:101660002046BDE8F08100BF94000020980C0020C7
:1016700098000020A40C0020A00C00209C0C00204E
:1016800010B5044670B3184A50F8043C126813426F
:1016900008D14FF0500383F31188BFF36F8FBFF36E
:1016A0004F8FFEE750F8081C41B14FF0500383F311
:1016B0001188BFF36F8FBFF34F8FFEE723EA02035A
:1016C00040F8043C00F078F9084A54F8043C1168EA
:1016D000A4F108000B441360FFF720FFBDE81040A1
:1016E00000F004BA10BD00BF980C00209C0C002034
:1016F000064A13681968064B19B94FF0FF321A6091
:1017000070471268D268D2685268F8E7B00C0020BF
:10171000880D0020F8B51B4B1B4E1D680446306831
:101720000F460430FFF7CBFD334640B90120316846
:10173000164EC96A3268884022EA00023260621C92
:1017400007D137B1196812480431BDE8F840FFF7F6
:1017500093BD2C441A68A542546007D90D4A1068FD
:101760001968BDE8F8400431FFF792BD0A4A1068D5
:1017700019680431FFF78CFD084B1A68944238BF92
:101780001C60F8BDD00D0020AC0C0020580D0020CE
:10179000A80D0020B40C0020B00C0020880D002003
:1017A0002DE9F84F4FEA820A804650460F46994687
:1017B0000B9EFFF7D7FE0546002800F096805420C8
:1017C000FFF7D0FE0446002800F08C80AAF1040A3E
:1017D000056355447B1E25F0070A00F134020F37DC
:1017E000597802F8011B13F8011F09B1BB42F7D168
:1017F0000A9D4FF0000B062D28BF0625271DE56228
:101800006564384684F843B0C4F848B0FFF731FD4A
:10181000C5F1070504F11800FFF72BFDC4F84CB023
:101820002461A561646284F850B04A46414650463E
:10183000FFF77EFD206006B13460FFF7A3FD324B59
:10184000324E1A68DFF8F08001321A603568002DD8
:101850004ED134601B68012B1DD108EB05001435F7
:10186000FFF7FCFC8C2DF8D1DFF8D090284D4846CE
:10187000FFF7F4FC2846FFF7F1FC2648FFF7EEFCE3
:101880002548FFF7EBFC2548FFF7E8FC244BC3F89D
:101890000090244B1D600125234A244913680868E1
:1018A00001331360E26A05FA02F3034314200B606C
:1018B00000FB02803946FFF7DFFCFFF785FD1C4B7C
:1018C0001B6863B13368DA6AE36A9A4207D24FF061
:1018D0008052184B1A60BFF34F8FBFF36F8F2846AB
:1018E000BDE8F88F2846FFF7CBFE4FF0FF35F6E74F
:1018F0000F4B1B68002BCED13368DA6AE36A9A4239
:1019000098BF3460C7E700BF440D0020AC0C002036
:10191000700D0020900D0020BC0D0020A80D0020AF
:10192000B00C0020B40C0020540D0020580D0020F5
:10193000A40D002004ED00E0B80C00205C0D002098
:1019400013B50024164B00940193802223461549B9
:101950001548FFF725FF012814D14FF0500383F3FA
:101960001188BFF36F8FBFF34F8F4FF0FF320F4BD4
:101970001A600F4B18600F4B1C6002B0BDE810409E
:10198000FFF782BD013008D14FF0500383F3118877
:10199000BFF36F8FBFF34F8FFEE702B010BD00BFE4
:1019A000840D0020F42A0008251C0008880D002062
:1019B000A40D0020D00D0020024A136801331360EB
:1019C000704700BF500D00202DE9F84F3C4B1B68BD
:1019D000002B53D13B4B1C6801341C60BCB93A4B03
:1019E0001A68126842B14FF0500383F31188BFF3B5
:1019F0006F8FBFF34F8FFEE7344A19681068186085
:101A00001160334A136801331360FFF771FE314DE3
:101A10004FF0000B2B68304F9C423ED3DFF8A8807C
:101A2000DFF8C490D8F80020126872BB4FF0FF3284
:101A30002A6032E006F1040A5046FFF740FCB16A22
:101A400019B106F11800FFF73AFC01224FF0140E0D
:101A5000F06AD9F8003002FA00F119431F4BC9F8B7
:101A600000100EFB00305146FFF706FC3868F16AA3
:101A7000C26A914228BF4FF0010BD3E7184A4FF0DA
:101A8000000B13680133136011E0D8F80020D2680E
:101A9000D66871688C42CDD229603A680F4BD16A02
:101AA00014224A439A58022A28BF4FF0010B0D4ACC
:101AB0001268002A18BF4FF0010B5846BDE8F88F96
:101AC000500D0020D00D0020B00C0020B40C0020E0
:101AD0008C0D0020880D0020AC0C0020B80C0020DC
:101AE0004C0D0020D40D0020580D00202DE9F843A6
:101AF000314C236843B94FF0500383F31188BFF38F
:101B00006F8FBFF34F8FFEE7FFF73CFC2368013B6D
:101B1000236024682CB10024FFF756FC2046BDE862
:101B2000F883264B1B68002BF5D0DFF8A890244FD4
:101B3000DFF8A480D9F80030E3B90CB1FFF7D8FD85
:101B4000204D2C6844B101271F4EFFF73DFF00B127
:101B50003760013CF9D12C601B4B1B68002BDAD09D
:101B60004FF08052194B1A60BFF34F8FBFF36F8F46
:101B70000124D1E7D9F80C300125DC68261D04F1D9
:101B80001800FFF79CFB3046FFF799FB1420E26A30
:101B9000396805FA02F30B4300FB028031463B60D3
:101BA000FFF76AFB0A4BE26A1B68DB6A9A4224BFB2
:101BB000054B1D60BEE700BF500D0020440D002006
:101BC000580D00204C0D0020D40D002004ED00E045
:101BD000AC0C0020900D0020B80C002008B540B9D6
:101BE0004FF080520D4B1A60BFF34F8FBFF36F8FD2
:101BF00008BD0B4B196841B14FF0500383F31188B6
:101C0000BFF36F8FBFF34F8FFEE7FFF7D5FEFFF7F0
:101C100081FDFFF76BFF0028E2D008BD04ED00E076
:101C2000500D002008B5174E174C236863B9174BA9
:101C30001B68012BF8D94FF08052154B1A60BFF387
:101C40004F8FBFF36F8FEFE7FFF7B6FE3568FFF7F3
:101C50004DFF002DE9D0FFF795FBF368DD68281DE7
:101C6000FFF72DFB0B4A1368013B13602368013B10
:101C70002360FFF7A9FB286BFFF702FD2846FFF75B
:101C8000FFFCD2E7BC0D0020480D0020B80C00205E
:101C900004ED00E0440D0020174B10B51A68174BF7
:101CA00012B101221A6010BD1A60154B1B68B3FAFD
:101CB00083F31422DBB2C3F11F035A4311498C583A
:101CC000881844B94FF0500383F31188BFF36F8F26
:101CD000BFF34F8FFEE74468083264680A449442B9
:101CE00008BF6268446008BF4260142202FB03130D
:101CF0005B68DA68044BD5E7500D0020D40D002056
:101D0000580D0020B80C0020AC0C002008B5044C85
:101D1000204600F0B7FA0520FFF798FAF8E700BF71
:101D2000F92A000808B5044C204600F0ABFA01205F
:101D3000FFF78CFAF8E700BF022B000870B50D4CD6
:101D40008AB06D4626460FCE0FC53368002168461F
:101D50002B60FFF762FA084E05AD143430600FCCEB
:101D60000FC52368002105A82B60FFF756FA3060E5
:101D70000AB070BDCC2A0008E80D0020102210B572
:101D800088B00DEB0200002100F018FA174B184C38
:101D90009A69204642F020029A619A69022102F073
:101DA00020020192019A9A6942F004029A619A69AA
:101DB00002F004020292029A9A6942F008029A61C1
:101DC0009B69012203F008030393039BFEF700FCC9
:101DD000012202230592002204A9204604930692C0
:101DE0000793FEF709FB08B010BD00BF00100240CA
:101DF000000C014010B590B02822002106A800F088
:101E0000DDF90021142201A800F0D8F94FF4803345
:101E10000122022407930E934FF4E01306A80692C2
:101E20000A920F930D94FEF7D9FB0F234FF48062B3
:101E300001930023214601A8029403930492059381
:101E4000FEF794FD10B010BD08B5FEF7F1F9FFF7ED
:101E5000D1FFFFF793FF00F003F9FFF76FFFFFF7E4
:101E6000D7F9FEE707B502A941F8040D4FF6FF7355
:101E700001220348FFF786F8019803B05DF804FBE0
:101E80002C0E00200268034B9A4201D1FEF7E2B902
:101E9000704700BF0014004070470000134B07B5A7
:101EA0009A690F2142F001029A619A696FF001006C
:101EB00002F001020092009ADA6942F08052DA617F
:101EC000DB69002203F080530193019BFEF7E6F9E2
:101ED000074A536823F0E06343F00073536053688C
:101EE00023F0E063536003B05DF804FB0010024090
:101EF0000000014010B5014688B000223720FEF7EF
:101F0000CDF93720FEF7FEF9144B01A9DA6903A8D1
:101F100042F02002DA61DB69114C03F020030293E6
:101F2000029BFEF7F5FDFEF7D3FD0E4B400023604C
:101F300040F2E733E3600C4BB0FBF3F000230138D1
:101F4000606020462361A360FEF7FEFE20B92046B4
:101F5000FEF7FDFD08B010BD0120FBE700100240B8
:101F6000EC0D00200014004040420F007047FEE7D7
:101F7000FEE7FEE7FEE770470148FFF7A1B800BFA4
:101F80002C0E00200148FEF7F1BD00BFEC0D002033
:101F900070B50E4615460C46A31B9D4201DC284633
:101FA00070BDAFF3008004F8010BF5E770B50E4685
:101FB00015460C46A31B9D4201DC284670BD14F853
:101FC000010BFFF74FFFF5E708B50A4B024619680A
:101FD00009B9094919606946186802448A4206D954
:101FE00000F0C2F80C2303604FF0FF3008BD1A6008
:101FF00008BD00BFD80D0020700E00204FF0FF304C
:1020000070474FF4005300204B6070470120704729
:10201000002070470F4B1A6842F001021A6059689D
:102020000D4A0A405A601A6822F0847222F4803203
:102030001A601A6822F480221A605A6822F4FE029A
:102040005A604FF41F029A604FF00062034B9A608F
:10205000704700BF001002400000FFF800ED00E0F4
:1020600008B54FF4E13E0A480A4B0C2280E80840CC
:10207000002342618360C36003618361C361FEF733
:1020800053FF18B1BDE80840FFF706BF08BD00BF09
:102090002C0E00200044004010B5044686B01022EB
:1020A000002102A800F08AF822681A4B9A422FD128
:1020B00003F5E633DA6902A942F40032DA61DA693B
:1020C000154802F400320092009A9A69002442F006
:1020D00004029A619B6903F004030193019B0423AA
:1020E00002930223039303230593FEF785F9082344
:1020F00009480DEB0301029303940494FEF77CF965
:10210000262022460521FEF7C9F82620FEF7FAF818
:1021100006B010BD0044004000080140002103E06B
:102120000B4B5B58435004310A480B4B42189A4200
:10213000F6D30A4A02E0002342F8043B084B9A42D5
:10214000F9D3FFF767FF00F015F8FFF77DFE704742
:10215000B42B000800000020700000207000002058
:10216000700E0020FEE70000014B1868704700BFAA
:102170000C00002070B500250C4E0D4CA41BA410C3
:10218000A54209D100F08EFC00250A4E0A4CA41B82
:10219000A410A54205D170BD56F8253098470135E9
:1021A000EEE756F8253098470135F2E7AC2B0008EA
:1021B000AC2B0008AC2B0008B02B000803460244EF
:1021C000934200D1704703F8011BF9E770B50E4642
:1021D000054618B183690BB900F00EFAAB69AC681B
:1021E00013B9284600F008FA234B9C4217D16C68BB
:1021F000A3891B071DD52369DBB1013EA36816F82F
:10220000011F013BA360E9B9002B2EDA22460A2107
:10221000284600F03FF8013011D00A2070BD174B5E
:102220009C4201D1AC68E3E7154B9C4208BFEC68C7
:10223000DEE72146284600F07FF80028DDD04FF089
:10224000FF3070BD002B04DAA269934206DB0A2935
:1022500004D023685A1C22601970CFE72246284612
:1022600000F018F80130C9D1E9E70A2023685A1CA8
:102270002260187070BD00BF6C2B00088C2B00080A
:102280004C2B0008024B01461868FFF79FBF00BFA8
:102290000C000020F8B50E461446054618B18369B7
:1022A0000BB900F0A9F9214B9C422AD16C68A369B3
:1022B000A360A3891A072ED5236963B32369206815
:1022C000F6B2C01A63693746984204DB21462846B5
:1022D00000F028F928BBA3680130013BA360236804
:1022E0005A1C22601E706369984204D0A389DB07E0
:1022F00019D50A2E17D12146284600F013F990B1BE
:102300000FE00B4B9C4201D1AC68D0E7094B9C42DB
:1023100008BFEC68CBE72146284600F00DF80028FE
:10232000CCD04FF0FF373846F8BD00BF6C2B00080B
:102330008C2B00084C2B0008324B70B51D680646EC
:102340000C4625B1AB6913B9284600F055F92E4B60
:102350009C420FD16C68B4F90C309AB215072CD49A
:10236000D00611D40922326043F04003A3814FF01C
:10237000FF3070BD254B9C4201D1AC68EBE7244B8C
:102380009C4208BFEC68E6E7510712D5616B41B18A
:1023900004F14403994202D0304600F01BFA0023B6
:1023A0006363A38923F02403A3810023636023696B
:1023B0002360A38943F00803A38123694BB9A38950
:1023C00003F42073B3F5007F03D02146304600F0BC
:1023D000C1F9A28912F001030CD00023A360636944
:1023E0005B42A361236953B9B4F90C3013F0800048
:1023F000BAD170BD920758BF6369A360F2E70020AD
:10240000F7E700BF0C0000206C2B00088C2B0008A5
:102410004C2B00088A892DE9F041054610070C462F
:102420005AD44B68002B05DC0B6C002B02DC00201F
:10243000BDE8F081E66A002EF9D0002312F4805244
:102440002F682B6033D0606DA3895A0705D5636868
:10245000C01A636B0BB1236CC01A00230246E66AF4
:10246000216A2846B047431CA38906D129681D2943
:102470004BD82B4ACA40D60747D500226260226952
:10248000D904226004D5421C01D12B6803B96065D0
:10249000616B2F600029CAD004F14403994202D035
:1024A000284600F097F900206063BDE8F081216ABA
:1024B00001232846B047411CC6D12B68002BC3D04E
:1024C0001D2B01D0162B01D12F60B0E7A38943F05B
:1024D0004003A381BDE8F0810F69002FA7D09307C7
:1024E00018BF00230E6808BF4B69A6EB07080F60F2
:1024F0008B60B8F1000F9ADD43463A46216A2846C0
:10250000A66AB047002807DCA38943F04003A381F3
:102510004FF0FF30BDE8F0810744A8EB0008E8E782
:102520000100402038B50B6905460C46DBB118B1F7
:1025300083690BB900F060F80C4B9C4209D16C68C0
:10254000B4F90C307BB121462846BDE83840FFF78E
:1025500061BF074B9C4201D1AC68F1E7054B9C423F
:1025600008BFEC68ECE7002038BD00BF6C2B00080A
:102570008C2B00084C2B0008014900F0A9B800BFC3
:1025800025250008002310B50446036043608360DE
:1025900081814366C28103614361836119460822D8
:1025A0005C30FFF70BFE054B24626362044BA362B1
:1025B000044BE362044B236310BD00BF49290008AC
:1025C0006B290008A3290008C729000870B56825F1
:1025D0004A1E55430E4605F1740100F047F90446C2
:1025E00040B1002180E842000C30A06005F1680293
:1025F000FFF7E4FD204670BD836910B5044633BB88
:102600008364C3640365124B124A1B68826298425A
:1026100004BF0123836100F01FF86060204600F0D2
:102620001BF8A060204600F017F80022E0600421AB
:102630006068FFF7A7FF01220921A068FFF7A2FF4A
:1026400002221221E068FFF79DFF0123A36110BD64
:10265000482B000879250008F8B51C4B07461E6872
:10266000B36913B93046FFF7C7FF4836B4687368DB
:10267000013B03D5336833B13668F7E7B4F90C5042
:102680006DB16834F4E704213846FFF79FFF3060EE
:102690000028F1D10C2304463B602046F8BD4FF6DC
:1026A000FF73E38101236566A3812560A5606560F2
:1026B00025616561A5610822294604F15C00FFF7E8
:1026C0007DFD6563A563A564E564E6E7482B000826
:1026D0002DE9F84380468946002600F1480414B9E4
:1026E0003046BDE8F883A5686768013F01D52468D6
:1026F000F5E7AB89012B07D9B5F90E30013303D0CB
:1027000029464046C84706436835EEE770B50E4691
:10271000B1F90E1090B0002914461D4607DA0023C7
:102720002B60B3891A0610D44FF480630EE001AA1F
:1027300000F070F90028F2DB029A02F47042A2F570
:1027400000535A425A412A60EEE74023002023609A
:1027500010B070BD8B8973B59D0706460C4607D532
:1027600004F14703236023610123636102B070BD5C
:1027700001AB6A46FFF7CAFF00990546304600F0F4
:1027800075F848B9B4F90C309A05EFD423F0030377
:1027900043F00203A381E3E70D4BB362A3892060FA
:1027A00043F08003A381009B20616361019B5BB1C7
:1027B000B4F90E10304600F03FF928B1A38923F098
:1027C000030343F00103A381A3891D43A581CDE742
:1027D0007925000838B50546002943D051F8043C56
:1027E0000C1F002BB8BFE41800F048F91E4A13680C
:1027F000104633B9636014602846BDE8384000F0E5
:102800003EB9A3420BD921686218934201BF1A68EE
:102810005B685218226063600460EDE713465A68F3
:102820000AB1A242FAD919685818A0420BD12068FF
:102830000144581882421960DED110685268014480
:1028400019605A60D8E702D90C232B60D4E72068BE
:1028500021188A4201BF116852680918216062601C
:102860005C60C9E738BD00BFDC0D002070B5CD1C31
:1028700025F0030508350C2D38BF0C25002D064624
:1028800001DBA94203D90C233360002070BD00F0A6
:10289000F5F8234A1468214691B9224C23681BB9E4
:1028A000304600F041F820602946304600F03CF800
:1028B000431C26D10C233046336000F0E0F8E4E7F7
:1028C0000B685B1B1AD40B2B0FD90B60CC18CD50A7
:1028D000304600F0D4F804F10B00231D20F007006F
:1028E000C31A1BD05A42E25070BD8C420BBF6368C2
:1028F0004B681360636018BF0C46E9E70C464968F3
:10290000CAE7C41C24F00304A04205D0211A3046B3
:1029100000F00AF80130CDD02560D9E770BD00BFC6
:10292000DC0D0020E00D002038B50023054C0546E5
:1029300008462360FFF748FB431C02D1236803B11C
:102940002B6038BD6C0E002010B50C46B1F90E108E
:1029500000F096F80028ABBF636DA3891B1823F421
:102960008053ACBF6365A38110BD2DE9F0411F46C4
:102970008B890546DB050C46164605D50223002249
:10298000B1F90E1000F068F8A389324623F48053A1
:10299000A381B4F90E103B462846BDE8F04100F093
:1029A00017B810B50C46B1F90E1000F055F8431CDD
:1029B000A38915BF606523F4805343F48053A3813A
:1029C00018BFA38110BDB1F90E1000F013B80000BC
:1029D00038B50546084611460022054C22601A46C5
:1029E000FFF7E4FA431C02D1236803B12B6038BD22
:1029F0006C0E002038B50023054C054608462360C0
:102A0000FFF7FCFA431C02D1236803B12B6038BDE9
:102A10006C0E002038B50023064C054608461146CA
:102A20002360FFF7EEFA431C02D1236803B12B6049
:102A300038BD00BF6C0E002038B50023054C05469C
:102A400008462360FFF7E2FA431C02D1236803B172
:102A50002B6038BD6C0E002038B50546084611467F
:102A60000022054C22601A46FFF7D2FA431C02D11D
:102A7000236803B12B6038BD6C0E0020704770478F
:102A800038B50546084611460022054C22601A4614
:102A9000FFF77EFA431C02D1236803B12B6038BDD7
:102AA0006C0E0020F8B500BFF8BC08BC9E4670470D
:0C2AB000F8B500BFF8BC08BC9E4670479B
:102ABC0002030405060708090A0B0C0D0E0F101073
:102ACC00212B00080D1D0008000000000000000074
:102ADC0080000000142B0008251D000800000000D9
:102AEC00000000008000000049444C45000D0A57CE
:102AFC006861743F0D000D0A2048656C6C6F2052A4
:102B0C00544F532032210D0064656661756C74540A
:102B1C0061736B320064656661756C745461736BC0
:102B2C00000000000000000000010203040607087A
:102B3C000900000000010203040000001000002046
:102B4C000000000000000000000000000000000079
:102B5C000000000000000000000000000000000069
:102B6C000000000000000000000000000000000059
:102B7C000000000000000000000000000000000049
:102B8C000000000000000000000000000000000039
:102B9C000000000000000000000000000000000029
:042BAC001502000806
:042BB000F101000827
:102BB40001000000AAAAAAAA00A24A041000002048
:102BC400000000006C2B00088C2B00084C2B000824
:102BD40000000000000000000000000000000000F1
:102BE40000000000000000000000000000000000E1
:102BF40000000000000000000000000000000000D1
:102C040000000000000000000000000000000000C0
:102C140000000000000000000000000000000000B0
:040000050800211DB1
:00000001FF
